:020000040000FA
:04000000BA200428F6
:08000800143083160313850078
:10001000013083120313CB00851620218512013095
:10002000C100A930C2000630C720CA0083160313DE
:100030009A017E207A3083120313C70085124A1476
:100040001530CC008F20FF30831603139A007E20DA
:10005000831203134A10CA1C34281530CC00083010
:10006000CE008630C7008F201C30CC00C701CE01E7
:100070000730D600B1208516D520C8110630C7003C
:10008000702159304F02031D6C2848110830C700F9
:100090007021AA304F02031D6B28A0305002031DAF
:1000A0006B2885120A30C7007021CF1F5B280830EB
:1000B000CF00FF30D0004F08831603139B0083123C
:1000C00003135008831603139A007E208312031330
:1000D000C703C41373213B28FF304902031D7D2849
:1000E000C701702103304F0203187D284F08C90053
:1000F000831603139A009B017E203B281C15553064
:100100009D00AA309D009C149C1884288312031320
:10011000080041088A004208820063008E280B21F3
:10012000FF3043020319B9286C30D9004308590243
:100130000318AF286C304302D6004A1CA7280830A9
:10014000C5004C08C80070214F08C30051214A1C4B
:100150006A21D60300305602031D9D288F28430ACA
:10016000D6000B215121D60300305602031DB128C1
:100170008F2808008F30831603138F0560308F049B
:100180000730831203139900850185010800831647
:1001900003139B001C141A088312031308001B305E
:1001A000D800D80BD12800000800C5018F30C80046
:1001B0008430C7000230CB0070218030D2008F30F5
:1001C0004F02031DEB28CF305002031DEB287A307D
:1001D000C4009B21F728C7304F02031DF728D430F5
:1001E0005002031DF7288E30C40052149B210800D2
:1001F0000030CD000830DA004D1C85104D188514F4
:100200000510CD0CC60CC6130519C6170514DA0B5C
:10021000FC28CF2008004A1818294E08C720C30020
:1002200000304E02031D16294308C900CE0A1F29BB
:100230008920C300C20A003042020319C10A080023
:10024000D401D501D40CD50C05140A2105100A21BE
:10025000D4130519D4170514EE305502031D2229B5
:10026000EE305402031D2229FE30F920F82082309E
:10027000F920B630F9204130F920F820F820F82094
:100280000130F920F820F8204608D700F820460869
:10029000D707F8204608D70741305702031D202909
:1002A0000800C5014708D1001F30C70500304702CC
:1002B000031D5C29D520CB035108C7000730D900A6
:1002C0004E085902031C45176B304C07C800430801
:1002D000C4007321C70A003047020319CC0A080082
:1002E000FF30C0007529FE30C0004008F920F8201A
:1002F0004808F9204708F9204408F9204508F92062
:100300005208F920F8204B08F920F820F820460878
:10031000D300F8204608D307F8204608CF00CB1CAE
:100320009429F8204608D0000030530203199A2976
:1003300020217529080085127321C7144030C4009C
:08034000CB037321CB0A080076
:0E0352000B34F734483460343234E93401346B
:10036000A034F434E03409344F34C83489340134CF
:10037000CE34C83475340234FC34463401347F340E
:100380000134CE34C834AA340534EA347334F63434
:10039000EA347734F63493340134D134C8347934C0
:1003A0000134A234C83480340234EA342F34F634B1
:1003B000813401341C34C83475346C34F434E13481
:1003C0009534BC34C734EA348734F434E1347E34B1
:1003D000BC34C734EA348334F434E1345034B734B1
:1003E000C734EA34CB34F4347434C6348034403403
:1003F000F7342034E2348B34A034C03406348734EC
:10040000F534CD3476348534523480340434C434F5
:1004100098348534F43474341934883440343034A6
:10042000D434FD34C4347A348534F5343034013472
:10043000C43479348534F53430340234C4347834F7
:100440008534F4347034283488340034DC34763421
:1004500085340034F53470340234D8340034E83450
:100460000D34FA348D340034C63477348534F434A2
:100470007234BF3469343F34EA340634F4347034AF
:100480007F34043423348234F53450340234F53468
:1004900050340C34F5346C3452340634F534523460
:1004A0001034CC3402348734C43407348734A03455
:1004B000F434E034D0345234C834DC340834833477
:1004C0003034F7344834A8340034E8344834F53450
:1004D000C434763485340A34F7344834A4340034D0
:1004E000E9340634F534DC3476348534EA342534A2
:1004F000CC3405348734D8340234E0341E34C83464
:1005000034348334F53404344434E8341634CC348D
:1005100046348334B834D8348134E9340E34CC349E
:10052000BC348534B834D8340234E9340634FD346C
:10053000D6340034FC344F34FE34F434E134B53472
:10054000CF34C734CC3476348534D8342834E934C5
:10055000F134F534D43476348534EA34EB34CD34A4
:1005600006348734D9340034E9340C34613404342B
:10057000D9346C340034E934383462340634F73416
:100580004A3401341034E9345934F4347434803446
:1005900001344034F53471340034C53406348734C2
:1005A000F434793447344E344834F534E8340B3479
:1005B000F5340134FF34D9345734E8340434D934B1
:1005C0005934E9340B34F83447345A340034D934CC
:1005D0005934E9340334FC3480340034F434743452
:1005E0006134F6342034EA344E34F734493400347C
:1005F0000134E8342534F434C934803401344034CF
:10060000D9344734E8341634CD3407348734D934F8
:100610000134E0340F34E5340534F93481340034E6
:10062000EA340334F934BD340134F43441347A34D7
:10063000BD344034F534D73406348734EA344E348C
:1006400062340634DA343834E9344834CD346C3426
:1006500001348734C53407348734CD3405348734C6
:10066000D9340034E8340B34D9340334E234073459
:10067000F7341D3402340034C53405348734F4347F
:100680007434C934D3342134F43450346C340034E9
:100690004034F4347434003400344334F534C43416
:1006A000763485340234D0340634CD340034873483
:1006B000D9340334E8341334E03404343134C534E9
:1006C000003487341134DA343834E9340834AA3445
:1006D000D0340D34F3345534F23404341234FC3451
:1006E0002D34FF34F434E1346234CE34C734A034D2
:1006F000C4347834833480340834C034A834853426
:10070000F434E1349834BD34C734C0347A3483349B
:10071000D83400348A340534C234BC348534E934E6
:1007200057348A340234C234C634673485348A3448
:100730000934C234BE348534C43473348334F7345A
:1007400030341834843462340634C8342834843461
:100750009834D334EE34F5345E340A34F5345F34EF
:100760000E348334F43470340034B0340134F5344E
:100770005C340034F834B0340034FD3432340034A6
:10078000F5341E3402341E34FD342B3400344F341F
:100790000234A0344C340434F834083402340C34B9
:1007A00080340434FD341F340034F5347E340A348C
:1007B000F5347F340E34D3341234AA34F434E134B3
:1007C0003034CE34C734F434E134FF34CD34C7345C
:1007D000FE3480340134C034C63485348A3409345C
:1007E000EA34EC3480340134F2347C34D0340434D0
:0E07F000F434E134D1349A34C834FE34FF348A
:02400E00C430BC
:00000001FF
