:020000040000FA
:04000000BA200428F6
:08000800043083160313850088
:10001000013083120313AB008517182185130130BB
:10002000A100A930A2000630BF20AA008316031346
:100030009A017E207C3083120313A70085132A14B3
:100040001530AC008F20FF30831603139A007E20FA
:10005000831203132A10AA1C34281530AC00083070
:10006000AE008830A7008F201C30AC00A701AE0185
:100070000730B600B1208517CD20A8110630A700A3
:10008000682159302F02031D6C2828111030A70059
:100090006821AA302F02031D6B28A0303002031DF7
:1000A0006B2885131230A7006821AF1F5B2808302A
:1000B000AF00FF30B0002F08831603139B0083129C
:1000C00003133008831603139A007E208312031350
:1000D000A703A4136B213B28FF302902031D7D28B1
:1000E000A701682103302F0203187D282F08A900DB
:1000F000831603139A009B017E203B281C15553064
:100100009D00AA309D009C149C1884288312031320
:10011000080021088A002208820063008E2803213B
:10012000FF3023020319B9286C30B90023083902C3
:100130000318AF286C302302B6002A1CA728083009
:10014000A5002C08A80068212F08A30049212A1C1B
:100150006221B60300303602031D9D288F28230A32
:10016000B60003214921B60300303602031DB12831
:100170008F28080007309F0085018601080083163C
:1001800003139B001C141A088312031308001B306E
:10019000B800B80BC92800000800A5018F30A800DE
:1001A0008430A7000230AB0068218030B200B43048
:1001B0002F02031DE328CF303002031DE3287C30DB
:1001C000A4009321EF284A302F02031DEF28D530D9
:1001D0003002031DEF289030A40032149321080050
:1001E0000030AD000830BA002D1C85102D18851484
:1001F0000510AD0CA60CA6130519A6170514BA0B0D
:10020000F428C72008002A1810292E08BF20A300B0
:1002100000302E02031D0E292308A900AE0A17295B
:100220008920A300A20A003022020319A10A0800B3
:10023000B401B501B40CB50C05140221051002215E
:10024000B4130519B4170514EE303502031D1A292D
:10025000EE303402031D1A29FE30F120F0208230E6
:10026000F120BE30F1204130F120F020F020F020CC
:100270000130F120F020F0202608B700F0202608F9
:10028000B707F0202608B70741303702031D1829A9
:100290000800A5012708B1001F30A705003027027C
:1002A000031D5429CD20AB033108A7000730B90046
:1002B0002E083902031C25176B302C07A8002308D1
:1002C000A4006B21A70A003027020319AC0A08001A
:1002D000FF30A0006D29FE30A0002008F120F020A2
:1002E0002808F1202708F1202408F1202508F12012
:1002F0003208F120F0202B08F120F020F020260811
:10030000B300F0202608B307F0202608AF00AB1C8E
:100310008C29F0202608B0000030330203199229FE
:1003200018216D29080085136B21A7144030A40003
:08033000AB036B21AB0A0800CE
:0E0352000B34F734483460343234E93401346B
:10036000A034F434E0342C344F34C83489340134AC
:10037000D034C83475340234FC34463401347F340C
:100380000134D034C834AA340534EA347334F63432
:10039000EA347734F63493340134D334C8347934BE
:1003A0000134A434C83480340234EA342F34F634AF
:1003B000813401341D34C83475346C34F434E13480
:1003C0009534BC34C734EA348734F434E1347E34B1
:1003D000BC34C734EA348334F434E1345034B734B1
:1003E000C734EA34CB34F4347434C8348034403401
:1003F000F7342034E2348B34A034C03406348734EC
:10040000F534CD3480348534523480340434C434EB
:10041000A2348534F434743419348834403430349C
:10042000D434FD34C43484348534F5343034013468
:10043000C43483348534F53430340234C4348234E3
:100440008534F4347034283488340034DC34803417
:1004500085340034F53470340234D8340034E83450
:100460000D34FA348D340034C63481348534F43498
:100470007234BF3469343F34EA340634F4347034AF
:100480007F34043423348234F53450340234F53468
:1004900050340C34F5346C3452340634F534523460
:1004A0001034CC3402348734C43407348734A03455
:1004B000F434E03451345334C834DC3410348334ED
:1004C0003034F7344834A8340034E8344834F53450
:1004D000C434803485340A34F7344834A4340034C6
:1004E000E9340634F534DC3480348534EA34253498
:1004F000CC3405348734D8340234E0341E34C83464
:100500003C348334F53404344434E8341634CC3485
:100510004E348334B834D8348134E9340E34CC3496
:10052000C6348534B834D8340234E9340634FD3462
:10053000D6340034FC344F34FE34F434E134B53472
:10054000CF34C734CC3480348534D8342834E934BB
:10055000F134F534D43480348534EA34EB34CD349A
:1005600006348734D9340034E9340C34613404342B
:10057000D9346C340034E934383462340634F73416
:100580004A3401341034E9345934F4347434803446
:1005900001344034F53471340034C53406348734C2
:1005A000F434793447344E344834F534E8340B3479
:1005B000F5340134FF34D9345734E8340434D934B1
:1005C0005934E9340B34F83447345A340034D934CC
:1005D0005934E9340334FC3480340034F434743452
:1005E0006134F6342034EA344E34F734493400347C
:1005F0000134E8342534F434C934803401344034CF
:10060000D9344734E8341634CD3407348734D934F8
:100610000134E0340F34E5340534F93481340034E6
:10062000EA340334F934BD340134F43441348634CB
:10063000BD344034F534D73406348734EA344E348C
:1006400062340634DA343834E9344834CD346C3426
:1006500001348734C53407348734CD3405348734C6
:10066000D9340034E8340B34D9340334E234073459
:10067000F7341D3402340034C53405348734F4347F
:100680007434C934D3342134F43450346C340034E9
:100690004034F4347434003400344334F534C43416
:1006A000803485340234D0340634CD340034873479
:1006B000D9340334E8341334E03404343134C534E9
:1006C000003487341134DA343834E9340834AA3445
:1006D000D0340D34F3345534F23404341234FC3451
:1006E0002D34FF34F434E1346234CE34C734A034D2
:1006F000C4348034833480340834C034B234853414
:10070000F434E1349834BD34C734C0348234833493
:10071000D83400348A340534C234C6348534E934DC
:1007200057348A340234C234D034673485348A343E
:100730000934C234C8348534C4347B348334F73448
:1007400030342034843462340634C8343034843451
:100750009834D334EE34F5345E340A34F5345F34EF
:100760000E348334F43470340034B0340134F5344E
:100770005C340034F834B0340034FD3432340034A6
:10078000F5341E3402341E34FD342B3400344F341F
:100790000234A0344C340434F834083402340C34B9
:1007A00080340434FD341F340034F5347E340A348C
:1007B000F5347F340E34D3341234AA34F434E134B3
:1007C0003034CE34C734F434E134FF34CD34C7345C
:1007D000FE3480340134C034D03485348A34093452
:1007E000EA34EC3480340134F2347C34D0340434D0
:0E07F000F434E134E6349C34C834FE34FF3473
:02400E00103F61
:00000001FF
