:10000000BC200428FF3FFF3F1430831685000330D7
:100010008312C520B600361C1628103083169500B2
:1000200081138312CB20051A162815280130AB0046
:1000300085161C2185120130A100A930A2000630CE
:10004000C520AA0083169A0181207A308312A70066
:1000500085122A141530AC009120FF3083169A00C7
:10006000812083122A10AA1C3C281530AC000830CD
:10007000AE008630A70091201C30AC00A701AE0175
:100080000730B600B3208516D120A8110630A7008E
:100090006C2159302F02031D702828110830A70049
:1000A0006C21AA302F02031D6F28A0303002031DDF
:1000B0006F2885120A30A7006C21AF1F6328083013
:1000C000AF00FF30B0002F0883169B00831230086A
:1000D00083169A0081208312A703A4136F2143285B
:1000E000FF302902031D8028A7016C2103302F0255
:1000F000031880282F08A90083169A009B018120ED
:1001000043281C1555309D00AA309D009C149C1856
:1001100087288312080021088A00220882006300D1
:1001200090280721FF3023020319BB286C30B90047
:10013000230839020318B1286C302302B6002A1CA8
:10014000A9280830A5002C08A8006C212F08A300BE
:100150004D212A1C6621B60300303602031D9F285C
:100160009128230AB60007214D21B603003036023C
:10017000031DB328912808001F109F1383169F01A9
:100180000730831299008501080083169B001C1418
:100190001A08831208001B30B800B80BCD280000E5
:1001A0000800A5018F30A8008430A7000230AB0002
:1001B0006C218030B2008F302F02031DE728CF3032
:1001C0003002031DE7287A30A4009721F328C730B6
:1001D0002F02031DF328D4303002031DF3288E3084
:1001E000A4003214972108000030AD000830BA0096
:1001F0002D1C85102D1885140510AD0CA60CA6130A
:100200000519A6170514BA0BF828CB2008002A18E0
:1002100014292E08C520A30000302E02031D122928
:100220002308A900AE0A1B298B20A300A20A0030D4
:1002300022020319A10A0800B401B501B40CB50CDF
:100240000514062105100621B4130519B417051469
:10025000EE303502031D1E29EE303402031D1E2927
:10026000FE30F520F4208230F520B630F520413004
:10027000F520F420F420F4200130F520F420F420BF
:100280002608B700F4202608B707F4202608B70789
:1002900041303702031D1C290800A5012708B100C1
:1002A0001F30A70500302702031D5829D120AB03BA
:1002B0003108A7000730B9002E083902031C2517A2
:1002C0006B302C07A8002308A4006F21A70A003078
:1002D00027020319AC0A0800FF30A0007129FE3084
:1002E000A0002008F520F4202808F5202708F52094
:1002F0002408F5202508F5203208F520F4202B08E5
:10030000F520F420F4202608B300F4202608B307D3
:10031000F4202608AF00AB1C9029F4202608B0007A
:1003200000303302031996291C2171290800851217
:100330006F21A7144030A400AB036F21AB0A080063
:100352000B34F734483460343234E9340134A03495
:10036200F434E03409344F34C83489340134CE349F
:10037200C83475340234FC34463401347F340134D9
:10038200CE34C834AA340534EA347334F634EA3449
:100392007734F63493340134D134C83479340134A7
:1003A200A234C83480340234EA342F34F63481342F
:1003B20001341C34C83475346C34F434E13495346B
:1003C200BC34C734EA348734F434E1347E34BC3488
:1003D200C734EA348334F434E1345034B734C734A4
:1003E200EA34CB34F4347434C63480344034F734D1
:1003F2002034E2348B34A034C03406348734F534EC
:10040200CD3476348534523480340434C434983450
:100412008534F43474341934883440343034D43468
:10042200FD34C4347A348534F53430340134C43480
:1004320079348534F53430340234C4347834853434
:10044200F4347034283488340034DC34763485341F
:100452000034F53470340234D8340034E8340D34C6
:10046200FA348D340034C63477348534F43472343B
:10047200BF3469343F34EA340634F43470347F34A0
:10048200043423348234F53450340234F534503495
:100492000C34F5346C3452340634F534523410349E
:1004A200CC3402348734C43407348734A034F4346F
:1004B200E034D0345234C834DC3408348334303439
:1004C200F7344834A8340034E8344834F534C434BA
:1004D200763485340A34F7344834A4340034E934A9
:1004E2000634F534DC3476348534EA342534CC34BD
:1004F20005348734D8340234E0341E34C8343434FA
:100502008334F53404344434E8341634CC34463479
:100512008334B834D8348134E9340E34CC34BC3426
:100522008534B834D8340234E9340634FD34D63450
:100532000034FC344F34FE34F434E134B534CF3477
:10054200C734CC3476348534D8342834E934F134A1
:10055200F534D43476348534EA34EB34CD3406348D
:100562008734D9340034E9340C3461340434D93456
:100572006C340034E934383462340634F7344A34A3
:1005820001341034E9345934F4347434803401348D
:100592004034F53471340034C53406348734F434CD
:1005A200793447344E344834F534E8340B34F53476
:1005B2000134FF34D9345734E8340434D93459344B
:1005C200E9340B34F83447345A340034D9345934CA
:1005D200E9340334FC3480340034F4347434613448
:1005E200F6342034EA344E34F734493400340134DA
:1005F200E8342534F434C934803401344034D934F5
:100602004734E8341634CD3407348734D9340134CE
:10061200E0340F34E5340534F93481340034EA34FB
:100622000334F934BD340134F43441347A34BD3402
:100632004034F534D73406348734EA344E346234E5
:100642000634DA343834E9344834CD346C34013485
:100652008734C53407348734CD3405348734D934EC
:100662000034E8340B34D9340334E2340734F73439
:100672001D3402340034C53405348734F434743400
:10068200C934D3342134F43450346C34003440341B
:10069200F4347434003400344334F534C4347634DE
:1006A20085340234D0340634CD3400348734D9341E
:1006B2000334E8341334E03404343134C5340034C0
:1006C20087341134DA343834E9340834AA34D03473
:1006D2000D34F3345534F23404341234FC342D34F2
:1006E200FF34F434E1346234CE34C734A034C43439
:1006F2007834833480340834C034A8348534F434F4
:10070200E1349834BD34C734C0347A348334D834B5
:1007120000348A340534C234BC348534E934573465
:100722008A340234C234C634673485348A34093494
:10073200C234BE348534C43473348334F734303431
:100742001834843462340634C834283484349834F7
:10075200D334EE34F5345E340A34F5345F340E3477
:100762008334F43470340034B0340134F5345C34FE
:100772000034F834B0340034FD3432340034F5340B
:100782001E3402341E34FD342B3400344F34023410
:10079200A0344C340434F834083402340C34803439
:1007A2000434FD341F340034F5347E340A34F53415
:1007B2007F340E34D3341234AA34F434E134303476
:1007C200CE34C734F434E134FF34CD34C734FE348C
:1007D20080340134C034C63485348A340934EA346E
:1007E200EC3480340134F2347C34D0340434F434C4
:0E07F200E134D1349A34C834FE34FF34FF3F72
:08400000FF3FFF3FFF3FFF3FC0
:02400E00841F0D
:00000001FF