:10000000AF200428FF3FFF3F0430831685000130F6
:100010008312AB0085160F2185120130A100A93093
:10002000A2000630B820AA0083169A0174207A3004
:100030008312A70005162A141530AC008420FF3067
:1000400083169A00742083122A10AA1C2E281530B9
:10005000AC000830AE008630A70084201C30AC0015
:10006000A701AE010730B600A62085160512C420F0
:10007000A8110630A7005F2159302F02031D632805
:1000800028110830A7005F21AA302F02031D622823
:10009000A0303002031D622805160A30A7005F2138
:1000A000AF1F56280830AF00FF30B0002F0883166E
:1000B0009B008312300883169A0074208312A703D2
:1000C000A41362213628FF302902031D7328A701DB
:1000D0005F2103302F02031873282F08A90083160D
:1000E0009A009B01742036281C1555309D00AA30BB
:1000F0009D009C149C187A288312080021088A000D
:100100002208820063008328FA20FF3023020319AB
:10011000AE286C30B900230839020318A4286C30CB
:100120002302B6002A1C9C280830A5002C08A80031
:100130005F212F08A30040212A1C5921B60300305B
:100140003602031D92288428230AB600FA20402193
:10015000B60300303602031DA628842808001F10AD
:100160009F1383169F0107308312990085010800B1
:1001700083169B001C141A08831208001B30B80059
:10018000B80BC02800000800A5018F30A8008430FB
:10019000A7000230AB005F218030B2008F302F0209
:1001A000031DDA28CF303002031DDA287A30A4008C
:1001B0008A21E628C7302F02031DE628D4303002FA
:1001C000031DE6288E30A40032148A210800003076
:1001D000AD000830BA002D1C85102D1885140510AF
:1001E000AD0CA60CA6130519A6170514BA0BEB281F
:1001F000BE2008002A1807292E08B820A3000030C6
:100200002E02031D05292308A900AE0A0E297E200F
:10021000A300A20A003022020319A10A0800B401B7
:10022000B501B40CB50C0514F9200510F920B41370
:100230000519B4170514EE303502031D1129EE30EF
:100240003402031D1129FE30E820E7208230E82027
:10025000B630E8204130E820E720E720E7200130F1
:10026000E820E720E7202608B700E7202608B707A0
:10027000E7202608B70741303702031D0F29080081
:10028000A5012708B1001F30A70500302702031D74
:100290004B29C420AB033108A7000730B9002E0852
:1002A0003902031C25176B302C07A8002308A40073
:1002B0006221A70A003027020319AC0A0800FF30A8
:1002C000A0006429FE30A0002008E820E7202808CC
:1002D000E8202708E8202408E8202508E82032083C
:1002E000E820E7202B08E820E720E7202608B300D5
:1002F000E7202608B307E7202608AF00AB1C8329B8
:10030000E7202608B00000303302031989290F21A5
:100310006429080005166221A7144030A400AB032D
:100320006221AB0A0800FF3FFF3FFF3FFF3FFF3F57
:100352000B34F734483460343234E9340134A03495
:10036200F434E03409344F34C83489340134CE349F
:10037200C83475340234FC34463401347F340134D9
:10038200CE34C834AA340534EA347334F634EA3449
:100392007734F63493340134D134C83479340134A7
:1003A200A234C83480340234EA342F34F63481342F
:1003B20001341C34C83475346C34F434E13495346B
:1003C200BC34C734EA348734F434E1347E34BC3488
:1003D200C734EA348334F434E1345034B734C734A4
:1003E200EA34CB34F4347434C63480344034F734D1
:1003F2002034E2348B34A034C03406348734F534EC
:10040200CD3476348534523480340434C434983450
:100412008534F43474341934883440343034D43468
:10042200FD34C4347A348534F53430340134C43480
:1004320079348534F53430340234C4347834853434
:10044200F4347034283488340034DC34763485341F
:100452000034F53470340234D8340034E8340D34C6
:10046200FA348D340034C63477348534F43472343B
:10047200BF3469343F34EA340634F43470347F34A0
:10048200043423348234F53450340234F534503495
:100492000C34F5346C3452340634F534523410349E
:1004A200CC3402348734C43407348734A034F4346F
:1004B200E034D0345234C834DC3408348334303439
:1004C200F7344834A8340034E8344834F534C434BA
:1004D200763485340A34F7344834A4340034E934A9
:1004E2000634F534DC3476348534EA342534CC34BD
:1004F20005348734D8340234E0341E34C8343434FA
:100502008334F53404344434E8341634CC34463479
:100512008334B834D8348134E9340E34CC34BC3426
:100522008534B834D8340234E9340634FD34D63450
:100532000034FC344F34FE34F434E134B534CF3477
:10054200C734CC3476348534D8342834E934F134A1
:10055200F534D43476348534EA34EB34CD3406348D
:100562008734D9340034E9340C3461340434D93456
:100572006C340034E934383462340634F7344A34A3
:1005820001341034E9345934F4347434803401348D
:100592004034F53471340034C53406348734F434CD
:1005A200793447344E344834F534E8340B34F53476
:1005B2000134FF34D9345734E8340434D93459344B
:1005C200E9340B34F83447345A340034D9345934CA
:1005D200E9340334FC3480340034F4347434613448
:1005E200F6342034EA344E34F734493400340134DA
:1005F200E8342534F434C934803401344034D934F5
:100602004734E8341634CD3407348734D9340134CE
:10061200E0340F34E5340534F93481340034EA34FB
:100622000334F934BD340134F43441347A34BD3402
:100632004034F534D73406348734EA344E346234E5
:100642000634DA343834E9344834CD346C34013485
:100652008734C53407348734CD3405348734D934EC
:100662000034E8340B34D9340334E2340734F73439
:100672001D3402340034C53405348734F434743400
:10068200C934D3342134F43450346C34003440341B
:10069200F4347434003400344334F534C4347634DE
:1006A20085340234D0340634CD3400348734D9341E
:1006B2000334E8341334E03404343134C5340034C0
:1006C20087341134DA343834E9340834AA34D03473
:1006D2000D34F3345534F23404341234FC342D34F2
:1006E200FF34F434E1346234CE34C734A034C43439
:1006F2007834833480340834C034A8348534F434F4
:10070200E1349834BD34C734C0347A348334D834B5
:1007120000348A340534C234BC348534E934573465
:100722008A340234C234C634673485348A34093494
:10073200C234BE348534C43473348334F734303431
:100742001834843462340634C834283484349834F7
:10075200D334EE34F5345E340A34F5345F340E3477
:100762008334F43470340034B0340134F5345C34FE
:100772000034F834B0340034FD3432340034F5340B
:100782001E3402341E34FD342B3400344F34023410
:10079200A0344C340434F834083402340C34803439
:1007A2000434FD341F340034F5347E340A34F53415
:1007B2007F340E34D3341234AA34F434E134303476
:1007C200CE34C734F434E134FF34CD34C734FE348C
:1007D20080340134C034C63485348A340934EA346E
:1007E200EC3480340134F2347C34D0340434F434C4
:0E07F200E134D1349A34C834FE34FF34FF3F72
:08400000FF3FFF3FFF3FFF3FC0
:02400E00841F0D
:00000001FF