:020000040000FA
:040000002F21042880
:08000800143083160313850078
:100010000330831203133C21BB003B1C1A28103011
:100020008316031395008113831203134421051AC9
:100030001A2819280130AD008516BC0195218512BA
:100040004030A500BC30A800B230A700E921203024
:100050003402031D3F28BE30BC008830C00005308C
:10006000A1008030A2009030AA004A30AF00D53005
:10007000B1007C30AB00B430B000F530BE000030D1
:100080003C02031D5628B630BC008630C000033049
:10009000A100A2018E30AA00C730AF00D430B10059
:1000A0007A30AB008F30B000F330BE00A9210630AB
:1000B0003C21AC00831603139A01F320831203132F
:1000C0002B08A70085122C141530AE000421FF3038
:1000D000831603139A00F320831203132C10AC1C15
:1000E00078281530AE000830B3004008A70004217E
:1000F0001C30AE00A701B3010730BB0026218516D6
:100100004A21A8110630A700E92159303402031D05
:10011000AC28281152303C07A700E921AA3034024C
:10012000031DAB28A0303502031DAB2885125430C7
:100130003C07A700E9213408831603139B008312B0
:1001400003133508831603139A00F3208312031355
:10015000A703A413EC217F2800303402031DE128FB
:10016000F030A500F230A8000C30A700E921DE3005
:100170003402031DE028AD303502031DE0280230B3
:10018000A70700302702031DB628831603139B011F
:10019000831203133E08A800E921340883160313D1
:1001A0009A00F32083120313A70A831603139B0AF2
:1001B0000030831203132702031DCC288512DF2889
:1001C0007F28FF302902031DF228A701E92103300F
:1001D00034020318F2283408A900831603139A0086
:1001E0009B01F3207F281C1555309D00AA309D00EF
:1001F0009C149C18F92883120313080021088A0014
:1002000022088200630003298021FF3023020319A2
:100210002E296C30C10023084102031824296C30B8
:100220002302BB002C1C1C290830A5002E08A800A6
:10023000E9213408A300CA212C1CE321BB030030B0
:100240003B02031D12290429230ABB008021CA2175
:10025000BB0300303B02031D2629042908008F3010
:10026000831603138F0560308F0407308312031346
:100270009900850187010800831603139B001C1455
:100280001A088312031308001B30BF00BF0B462956
:1002900000000800A5018F30A8008430A7000230BC
:1002A000AD00E9218030B70030083402031D602919
:1002B000CF303502031D60292B08A40014226C29BD
:1002C0002F083402031D6C2931083502031D6C29E7
:1002D0002A08A4003714142208000030B2000830A5
:1002E000C200321C8510321885140510B20CA60C01
:1002F000A6130519A6170514C20B7129442108007D
:100300002C188D2933083C21A30000303302031D33
:100310008B292308A900B30A9429FE20A300A20A6E
:10032000003022020319A10A0800B901BA01B90C70
:10033000BA0C05147F2105107F21B9130519B917CF
:100340000514EE303A02031D9729EE303902031DE1
:10035000972900303C020319C929FE306E216D2116
:1003600082306E213C086E2141306E216D216D215D
:100370006D2101306E216D216D212608BD006D219A
:100380002608BD076D212608BD0741303D02031D2B
:1003900095290800A5012708B6001F30A7050030E1
:1003A0002702031DD5294A21AD033608A7000730CF
:1003B000C10033084102031C25176B302E07A8002B
:1003C0002308A400EC21A70A003027020319AE0A73
:1003D0000800FF30A000EE29FE30A00020086E21AA
:1003E0006D2128086E2127086E2124086E2125081A
:1003F0006E2137086E216D212D086E216D216D2132
:100400002608B8006D212608B8076D212608B4001B
:10041000AD1C0D2A6D212608B500003038020319E5
:10042000132A9521EE2908008512EC21A7144030EB
:0A043000A400AD03EC21AD0A0800A2
:100600000B34F734483460343234E9340134A034E4
:10061000F434E03409344F34C83489340134CE34EE
:10062000C83475340234FC34463401347F34013428
:10063000CE34C834AA340534EA347334F634EA3498
:100640007734F63493340134D134C83479340134F6
:10065000A234C83480340234EA342F34F63481347E
:1006600001341C34C83475346C34F434E1349534BA
:10067000BC34C734EA348734F434E1347E34BC34D7
:10068000C734EA348334F434E1345034B734C734F3
:10069000EA34CB34F4347434C63480344034F73420
:1006A0002034E2348B34A034C03406348734F5343B
:1006B000CD3476348534523480340434C4349834A0
:1006C0008534F43474341934883440343034D434B8
:1006D000FD34C4347A348534F53430340134C434D0
:1006E00079348534F53430340234C4347834853484
:1006F000F4347034283488340034DC34763485346F
:100700000034F53470340234D8340034E8340D3415
:10071000FA348D340034C63477348534F43472348A
:10072000BF3469343F34EA340634F43470347F34EF
:10073000043423348234F53450340234F5345034E4
:100740000C34F5346C3452340634F53452341034ED
:10075000CC3402348734C43407348734A034F434BE
:10076000E034D0345234C834DC3408348334303488
:10077000F7344834A8340034E8344834F534C43409
:10078000763485340A34F7344834A4340034E934F8
:100790000634F534DC3476348534EA342534CC340C
:1007A00005348734D8340234E0341E34C834343449
:1007B0008334F53404344434E8341634CC344634C9
:1007C0008334B834D8348134E9340E34CC34BC3476
:1007D0008534B834D8340234E9340634FD34D634A0
:1007E0000034FC344F34FE34F434E134B534CF34C7
:1007F000C734CC3476348534D8342834E934F134F1
:10080000F534D43476348534EA34EB34CD340634DC
:100810008734D9340034E9340C3461340434D934A5
:100820006C340034E934383462340634F7344A34F2
:1008300001341034E9345934F434743480340134DC
:100840004034F53471340034C53406348734F4341C
:10085000793447344E344834F534E8340B34F534C5
:100860000134FF34D9345734E8340434D93459349A
:10087000E9340B34F83447345A340034D934593419
:10088000E9340334FC3480340034F4347434613497
:10089000F6342034EA344E34F73449340034013429
:1008A000E8342534F434C934803401344034D93444
:1008B0004734E8341634CD3407348734D93401341E
:1008C000E0340F34E5340534F93481340034EA344B
:1008D0000334F934BD340134F43441347A34BD3452
:1008E0004034F534D73406348734EA344E34623435
:1008F0000634DA343834E9344834CD346C340134D5
:100900008734C53407348734CD3405348734D9343B
:100910000034E8340B34D9340334E2340734F73488
:100920001D3402340034C53405348734F43474344F
:10093000C934D3342134F43450346C34003440346A
:10094000F4347434003400344334F534C43476342D
:1009500085340234D0340634CD3400348734D9346D
:100960000334E8341334E03404343134C53400340F
:1009700087341134DA343834E9340834AA34D034C2
:100980000D34F3345534F23404341234FC342D3441
:10099000FF34F434E1346234CE34C734A034C43488
:1009A0007834833480340834C034A8348534F43443
:1009B000E1349834BD34C734C0347A348334D83405
:1009C00000348A340534C234BC348534E9345734B5
:1009D0008A340234C234C634673485348A340934E4
:1009E000C234BE348534C43473348334F734303481
:1009F0001834843462340634C83428348434983447
:100A0000D334EE34F5345E340A34F5345F340E34C6
:100A10008334F43470340034B0340134F5345C344D
:100A20000034F834B0340034FD3432340034F5345A
:100A30001E3402341E34FD342B3400344F3402345F
:100A4000A0344C340434F834083402340C34803488
:100A50000434FD341F340034F5347E340A34F53464
:100A60007F340E34D3341234AA34F434E1343034C5
:100A7000CE34C734F434E134FF34CD34C734FE34DB
:100A800080340134C034C63485348A340934EA34BD
:100A9000EC3480340134F2347C34D0340434F43413
:0C0AA000E134D1349A34C834FE34FF3401
:100B00000B34F734483460343234E9340134A034DF
:100B1000F434E0342C344F34C83489340134D034C4
:100B2000C83475340234FC34463401347F34013423
:100B3000D034C834AA340534EA347334F634EA3491
:100B40007734F63493340134D334C83479340134EF
:100B5000A434C83480340234EA342F34F634813477
:100B600001341D34C83475346C34F434E1349534B4
:100B7000BC34C734EA348734F434E1347E34BC34D2
:100B8000C734EA348334F434E1345034B734C734EE
:100B9000EA34CB34F4347434C83480344034F73419
:100BA0002034E2348B34A034C03406348734F53436
:100BB000CD3480348534523480340434C434A23487
:100BC0008534F43474341934883440343034D434B3
:100BD000FD34C43484348534F53430340134C434C1
:100BE00083348534F53430340234C434823485346B
:100BF000F4347034283488340034DC348034853460
:100C00000034F53470340234D8340034E8340D3410
:100C1000FA348D340034C63481348534F43472347B
:100C2000BF3469343F34EA340634F43470347F34EA
:100C3000043423348234F53450340234F5345034DF
:100C40000C34F5346C3452340634F53452341034E8
:100C5000CC3402348734C43407348734A034F434B9
:100C6000E03451345334C834DC34103483343034F9
:100C7000F7344834A8340034E8344834F534C43404
:100C8000803485340A34F7344834A4340034E934E9
:100C90000634F534DC3480348534EA342534CC34FD
:100CA00005348734D8340234E0341E34C8343C343C
:100CB0008334F53404344434E8341634CC344E34BC
:100CC0008334B834D8348134E9340E34CC34C63467
:100CD0008534B834D8340234E9340634FD34D6349B
:100CE0000034FC344F34FE34F434E134B534CF34C2
:100CF000C734CC3480348534D8342834E934F134E2
:100D0000F534D43480348534EA34EB34CD340634CD
:100D10008734D9340034E9340C3461340434D934A0
:100D20006C340034E934383462340634F7344A34ED
:100D300001341034E9345934F434743480340134D7
:100D40004034F53471340034C53406348734F43417
:100D5000793447344E344834F534E8340B34F534C0
:100D60000134FF34D9345734E8340434D934593495
:100D7000E9340B34F83447345A340034D934593414
:100D8000E9340334FC3480340034F4347434613492
:100D9000F6342034EA344E34F73449340034013424
:100DA000E8342534F434C934803401344034D9343F
:100DB0004734E8341634CD3407348734D934013419
:100DC000E0340F34E5340534F93481340034EA3446
:100DD0000334F934BD340134F43441348634BD3441
:100DE0004034F534D73406348734EA344E34623430
:100DF0000634DA343834E9344834CD346C340134D0
:100E00008734C53407348734CD3405348734D93436
:100E10000034E8340B34D9340334E2340734F73483
:100E20001D3402340034C53405348734F43474344A
:100E3000C934D3342134F43450346C340034403465
:100E4000F4347434003400344334F534C43480341E
:100E500085340234D0340634CD3400348734D93468
:100E60000334E8341334E03404343134C53400340A
:100E700087341134DA343834E9340834AA34D034BD
:100E80000D34F3345534F23404341234FC342D343C
:100E9000FF34F434E1346234CE34C734A034C43483
:100EA0008034833480340834C034B2348534F4342C
:100EB000E1349834BD34C734C03482348334D834F8
:100EC00000348A340534C234C6348534E9345734A6
:100ED0008A340234C234D034673485348A340934D5
:100EE000C234C8348534C4347B348334F73430346A
:100EF0002034843462340634C83430348434983432
:100F0000D334EE34F5345E340A34F5345F340E34C1
:100F10008334F43470340034B0340134F5345C3448
:100F20000034F834B0340034FD3432340034F53455
:100F30001E3402341E34FD342B3400344F3402345A
:100F4000A0344C340434F834083402340C34803483
:100F50000434FD341F340034F5347E340A34F5345F
:100F60007F340E34D3341234AA34F434E1343034C0
:100F7000CE34C734F434E134FF34CD34C734FE34D6
:100F800080340134C034D03485348A340934EA34AE
:100F9000EC3480340134F2347C34D0340434F4340E
:0C0FA000E134E6349C34C834FE34FF34E5
:02400E00C430BC
:00000001FF
